:020000040800F2
:100000000050002091610008FD1E0008FF1E00083E
:10001000011F0008031F0008051F00080000000062
:10002000000000000000000000000000071F0008A2
:10003000091F0008000000000B1F00080D1F00082A
:10004000D9610008D9610008D9610008D9610008A8
:10005000D9610008D9610008D9610008D961000898
:10006000D9610008D9610008D9610008D961000888
:10007000D9610008D9610008D9610008D961000878
:10008000D9610008D9610008D9610008D961000868
:10009000D9610008D9610008D9610008D961000858
:1000A000D9610008D9610008D9610008D961000848
:1000B000D9610008D9610008D9610008D961000838
:1000C000D9610008D9610008D9610008D961000828
:1000D000D9610008D9610008D9610008D961000818
:1000E000D9610008D9610008D9610008000000004A
:1000F0000000000000000000000000000000000000
:0C01000000000000000000005FF808F1A3
:1001100010B5054C237833B9044B13B10448AFF341
:1001200000800123237010BD0C120020000000008D
:10013000E4BE000808B5034B1BB103490348AFF305
:10014000008008BD0000000010120020E4BE00087E
:1001500081F0004102E000BF83F0004330B54FEA78
:1001600041044FEA430594EA050F08BF90EA020FE5
:100170001FBF54EA000C55EA020C7FEA645C7FEA78
:10018000655C00F0E2804FEA5454D4EB5555B8BF9B
:100190006D420CDD2C4480EA020281EA030382EA0C
:1001A000000083EA010180EA020281EA0303362D9E
:1001B00088BF30BD11F0004F4FEA01314FF4801C71
:1001C0004CEA113102D0404261EB410113F0004F83
:1001D0004FEA03334CEA133302D0524263EB43033A
:1001E00094EA050F00F0A780A4F10104D5F1200ED8
:1001F0000DDB02FA0EFC22FA05F2801841F1000133
:1002000003FA0EF2801843FA05F359410EE0A5F106
:1002100020050EF1200E012A03FA0EFC28BF4CF037
:10022000020C43FA05F3C01851EBE37101F00045ED
:1002300007D54FF0000EDCF1000C7EEB00006EEBFA
:100240000101B1F5801F1BD3B1F5001F0CD3490884
:100250005FEA30004FEA3C0C04F101044FEA4452DB
:1002600012F5800F80F09A80BCF1004F08BF5FEA62
:10027000500C50F1000041EB045141EA050130BD42
:100280005FEA4C0C404141EB0101013C28BFB1F554
:10029000801FE9D291F0000F04BF01460020B1FA9F
:1002A00081F308BF2033A3F10B03B3F120020CDA72
:1002B0000C3208DD02F1140CC2F10C0201FA0CF050
:1002C00021FA02F10CE002F11402D8BFC2F1200CB5
:1002D00001FA02F120FA0CFCDCBF41EA0C0190406B
:1002E000E41AA2BF01EB0451294330BD6FEA0404B4
:1002F0001F3C1CDA0C340EDC04F11404C4F120029F
:1003000020FA04F001FA02F340EA030021FA04F3B0
:1003100045EA030130BDC4F10C04C4F1200220FA07
:1003200002F001FA04F340EA0300294630BD21FA45
:1003300004F0294630BD94F0000F83F4801306BF0B
:1003400081F480110134013D4EE77FEA645C18BFFF
:100350007FEA655C29D094EA050F08BF90EA020F96
:1003600005D054EA000C04BF1946104630BD91EA8E
:10037000030F1EBF0021002030BD5FEA545C05D191
:100380004000494128BF41F0004130BD14F58004D0
:100390003CBF01F5801130BD01F0004545F0FE4144
:1003A00041F470014FF0000030BD7FEA645C1ABF79
:1003B000194610467FEA655C1CBF0B46024650EAB0
:1003C000013406BF52EA033591EA030F41F40021DC
:1003D00030BD00BF90F0000F04BF0021704730B562
:1003E0004FF4806404F132044FF000054FF0000137
:1003F00050E700BF90F0000F04BF0021704730B5F8
:100400004FF4806404F1320410F0004548BF4042CC
:100410004FF000013EE700BF42004FEAE2014FEA21
:1004200031014FEA02701FBF12F07F4393F07F4FFC
:1004300081F06051704732F07F4208BF704793F0FF
:100440007F4F04BF41F40021704730B54FF4607412
:1004500001F0004521F000411CE700BF50EA010215
:1004600008BF704730B54FF000050AE050EA0102BE
:1004700008BF704730B511F0004502D5404261EB2E
:1004800041014FF4806404F132045FEA915C3FF46F
:10049000D8AE4FF003025FEADC0C18BF03325FEA0C
:1004A000DC0C18BF033202EBDC02C2F1200300FABD
:1004B00003FC20FA02F001FA03FE40EA0E0021FAE2
:1004C00002F11444BDE600BF4FEA4102B2F1E0433D
:1004D00024BFB3F5001CDCF1FE5C0DD901F0004C2B
:1004E0004FEAC0024CEA5070B2F1004F40EB83007B
:1004F00008BF20F00100704711F0804F21D113F1A7
:100500003872BCBF01F00040704741F480114FEADF
:100510005252C2F11802C2F1200C10FA0CF320FA68
:1005200002F018BF40F001004FEAC1234FEAD32385
:1005300003FA0CFC40EA0C0023FA02F34FEA4303EF
:10054000CCE77FEA625307D150EA01331EBF4FF078
:10055000FE4040F44000704701F0004040F0FE4093
:1005600040F40000704700BF80F0004002E000BF90
:1005700081F0004142001FBF5FEA410392EA030F8E
:100580007FEA226C7FEA236C6AD04FEA1262D2EBD8
:100590001363C1BFD218414048404140B8BF5B42DD
:1005A000192B88BF704710F0004F40F4000020F076
:1005B0007F4018BF404211F0004F41F4000121F08C
:1005C0007F4118BF494292EA030F3FD0A2F10102D6
:1005D00041FA03FC10EB0C00C3F1200301FA03F114
:1005E00000F0004302D5494260EB4000B0F5000F37
:1005F00013D3B0F1807F06D340084FEA310102F1F6
:100600000102FE2A51D2B1F1004F40EBC25008BFA7
:1006100020F0010040EA03007047490040EB000071
:10062000013A28BFB0F5000FEDD2B0FA80FCACF172
:10063000080CB2EB0C0200FA0CF0AABF00EBC2509F
:1006400052421843BCBFD0401843704792F0000F8D
:1006500081F4000106BF80F400000132013BB5E7E0
:100660004FEA41037FEA226C18BF7FEA236C21D056
:1006700092EA030F04D092F0000F08BF08467047BB
:1006800090EA010F1CBF0020704712F07F4F04D189
:10069000400028BF40F00040704712F100723CBF9C
:1006A00000F50000704700F0004343F0FE4040F4C6
:1006B000000070477FEA226216BF08467FEA236384
:1006C0000146420206BF5FEA412390EA010F40F46F
:1006D000800070474FF0000304E000BF10F00043BB
:1006E00048BF40425FEA000C08BF704743F09643A2
:1006F00001464FF000001CE050EA010208BF7047BD
:100700004FF000030AE000BF50EA010208BF704743
:1007100011F0004302D5404261EB41015FEA010C58
:1007200002BF84460146002043F0B64308BFA3F150
:100730008053A3F50003BCFA8CF2083AA3EBC25332
:1007400010DB01FA02FC634400FA02FCC2F1200251
:10075000BCF1004F20FA02F243EB020008BF20F088
:100760000100704702F1200201FA02FCC2F12002EE
:1007700050EA4C0021FA02F243EB020008BF20EAE3
:10078000DC7070474FF0FF0C1CEAD0521EBF1CEA11
:10079000D15392EA0C0F93EA0C0F6FD01A4480EAFF
:1007A000010C400218BF5FEA41211ED04FF00063E8
:1007B00043EA501043EA5111A0FB01310CF0004014
:1007C000B1F5000F3EBF490041EAD3715B0040EA3A
:1007D000010062F17F02FD2A1DD8B3F1004F40EB0A
:1007E000C25008BF20F00100704790F0000F0CF0DD
:1007F000004C08BF49024CEA502040EA51207F3AA1
:10080000C2BFD2F1FF0340EAC250704740F400007B
:100810004FF00003013A5DDC12F1190FDCBF00F06C
:1008200000407047C2F10002410021FA02F1C2F11A
:10083000200200FA02FC5FEA310040F1000053EAB6
:100840004C0308BF20EADC70704792F0000F00F004
:10085000004C02BF400010F4000F013AF9D040EA0A
:100860000C0093F0000F01F0004C02BF490011F49E
:10087000000F013BF9D041EA0C018FE70CEAD1539C
:1008800092EA0C0F18BF93EA0C0F0AD030F0004C1C
:1008900018BF31F0004CD8D180EA010000F00040D0
:1008A000704790F0000F17BF90F0004F084691F08E
:1008B000000F91F0004F14D092EA0C0F01D14202C8
:1008C0000FD193EA0C0F03D14B0218BF084608D191
:1008D00080EA010000F0004040F0FE4040F40000DB
:1008E000704740F0FE4040F4400070474FF0FF0C6E
:1008F0001CEAD0521EBF1CEAD15392EA0C0F93EAB5
:100900000C0F69D0A2EB030280EA010C49024FEA06
:10091000402037D04FF0805343EA111143EA1013BF
:100920000CF000408B4238BF5B0042F17D024FF477
:10093000000C8B4224BF5B1A40EA0C00B3EB510F52
:1009400024BFA3EB510340EA5C00B3EB910F24BF3B
:10095000A3EB910340EA9C00B3EBD10F24BFA3EBC0
:10096000D10340EADC001B0118BF5FEA1C1CE0D188
:10097000FD2A3FF650AF8B4240EBC25008BF20F03B
:10098000010070470CF0004C4CEA50207F32C2BF8F
:10099000D2F1FF0340EAC250704740F400004FF02C
:1009A0000003013A37E792F0000F00F0004C02BF5D
:1009B000400010F4000F013AF9D040EA0C0093F027
:1009C000000F01F0004C02BF490011F4000F013B81
:1009D000F9D041EA0C0195E70CEAD15392EA0C0FE9
:1009E00008D142027FF47DAF93EA0C0F7FF470AF21
:1009F000084676E793EA0C0F04D14B023FF44CAF64
:100A000008466EE730F0004C18BF31F0004CCAD1F8
:100A100030F000427FF45CAF31F000437FF43CAF34
:100A20005FE700BF4FF0FF3C06E000BF4FF0010C56
:100A300002E000BF4FF0010C4DF804CD4FEA400238
:100A40004FEA41037FEA226C18BF7FEA236C11D082
:100A500001B052EA530C18BF90EA010F58BFB2EB35
:100A6000030088BFC81738BF6FEAE17018BF40F0B5
:100A7000010070477FEA226C02D15FEA402C05D169
:100A80007FEA236CE4D15FEA412CE1D05DF8040BEE
:100A9000704700BF844608466146FFE70FB5FFF781
:100AA000C9FF002848BF10F1000F0FBD4DF808ED39
:100AB000FFF7F4FF0CBF012000205DF808FB00BF2A
:100AC0004DF808EDFFF7EAFF34BF012000205DF884
:100AD00008FB00BF4DF808EDFFF7E0FF94BF0120D1
:100AE00000205DF808FB00BF4DF808EDFFF7D2FFCE
:100AF00094BF012000205DF808FB00BF4DF808ED11
:100B0000FFF7C8FF34BF012000205DF808FB00BFDD
:100B10004FEA4002B2F1FE4F0FD34FF09E03B3EB0A
:100B200012620DD94FEA002343F0004310F0004F4A
:100B300023FA02F018BF404270474FF000007047A0
:100B400012F1610F01D1420205D110F0004008BF3F
:100B50006FF0004070474FF00000704742000ED227
:100B6000B2F1FE4F0BD34FF09E03B3EB126209D4E8
:100B70004FEA002343F0004323FA02F070474FF09E
:100B80000000704712F1610F01D1420202D14FF013
:100B9000FF3070474FF00000704700BF7BB972B95B
:100BA0000029BEBF00204FF0004106E008BF00282A
:100BB0001CBF6FF000414FF0FF3000F0A1B9ADF164
:100BC000080C6DE904CE002909DB002B1ADB00F0CC
:100BD00035F8DDF804E0DDE9022304B07047404257
:100BE00061EB4101002B1BDB00F028F8DDF804E08D
:100BF000DDE9022304B0404261EB4101524263EB64
:100C000043037047524263EB430300F017F8DDF8EB
:100C100004E0DDE9022304B0404261EB410170478A
:100C2000524263EB430300F009F8DDF804E0DDE92C
:100C3000022304B0524263EB430370472DE9F047AF
:100C4000089E0D4604468E46002B40F083808A4263
:100C5000174647D9B2FA82F34BB1C3F1200105FA26
:100C600003FE20FA01F19F4041EA0E0E9C404FEA3C
:100C70001748BEFBF8FC1FFA87F908FB1CE20CFBC7
:100C800009F0210C41EA024290420AD9BA180CF14B
:100C9000FF3180F01881904240F21581ACF1020CD6
:100CA0003A44121AB2FBF8F008FB102200FB09F1DB
:100CB000A4B244EA0244A14209D93C1900F1FF322E
:100CC00080F00381A14240F2008102383C44641A62
:100CD000002140EA0C401EB10022DC40C6E900427F
:100CE000BDE8F08702B9FFDEB2FA82F3002B4FD1E4
:100CF0008D1A01214FEA124E1FFA82F8B5FBFEFC55
:100D00000EFB1C5508FB0CF0220C42EA0545A842DC
:100D100007D97D190CF1FF3202D2A84200F2E98016
:100D200094462D1AB5FBFEF00EFB105508FB00F89B
:100D3000A4B244EA0544A04507D93C1900F1FF32AA
:100D400002D2A04500F2D9801046A4EB080440EA84
:100D50000C40C0E78B4208D9002E00F0B180002182
:100D6000C6E900050846BDE8F087B3FA83F100291B
:100D70004BD1AB4202D3824200F2B980841A65EBB8
:100D8000030301209E46002EAAD0C6E9004EA7E725
:100D90009F40C3F12002D1404FEA174EB1FBFEF055
:100DA0001FFA87F80EFB101124FA02F29D4000FB97
:100DB00008FC2A43150C45EA0145AC4504FA03F446
:100DC00009D97D1900F1FF3180F08F80AC4540F2E8
:100DD0008C8002383D44A5EB0C05B5FBFEF10EFB03
:100DE000115C01FB08F995B245EA0C45A94507D904
:100DF0007D1901F1FF3274D2A94572D902393D44FF
:100E0000A5EB090541EA004178E7C1F120078B40D5
:100E100022FA07FC4CEA030C25FA07F44FEA1C4EB1
:100E2000B4FBFEF91FFA8CF80EFB194420FA07F305
:100E300009FB08FA8D401D432B0C43EA0444A245EC
:100E400002FA01F200FA01F309D91CEB040409F1DA
:100E5000FF3048D2A24546D9A9F102096444A4EB67
:100E60000A04B4FBFEF00EFB104400FB08FAADB21E
:100E700045EA0444A24508D91CEB040400F1FF35FF
:100E80002DD2A2452BD90238644440EA0940A0FB88
:100E90000289A4EB0A044C45C6464D4619D316D028
:100EA0005EB1B3EB0E0264EB050404FA07F722FA15
:100EB00001F31F43CC40C6E900740021BDE8F08770
:100EC000314630460CE78C46EBE61046FFE64345DC
:100ED000E6D2B8EB020E69EB0C050138E0E72846D4
:100EE000D3E711468CE78146B9E7084673E7084621
:100EF00049E7ACF1020C3D4413E702383C4424E7D7
:100F0000704700BF844641EA000313F0030349D150
:100F1000403A23D30B6803604B6843608B6883605F
:100F2000CB68C3600B6903614B6943618B69836163
:100F3000CB69C3610B6A03624B6A43628B6A83624B
:100F4000CB6AC3620B6B03634B6B43638B6B836333
:100F5000CB6BC36340304031403ADBD230320BD3ED
:100F60000B6803604B6843608B688360CB68C36029
:100F700010301031103AF3D20C3205D351F8043B43
:100F800040F8043B043AF9D2043208D0D2071CBF1F
:100F900011F8013B00F8013B01D30B880380604648
:100FA000704700BF082A13D38B07B1D010F003039A
:100FB000AED0C3F10403D21ADB071CBF11F8013B0A
:100FC00000F8013BA4D331F8023B20F8023B9FE735
:100FD000043AD9D3013A11F8013B00F8013BF9D2A8
:100FE0000B7803704B7843708B7883706046704742
:100FF00070B54FF0FF0C4CF4E06C1CEA11541DBFAF
:101000001CEA135594EA0C0F95EA0C0F00F0DEF879
:101010002C4481EA030621EA4C5123EA4C5350EA5E
:10102000013518BF52EA033541F4801143F48013AF
:1010300038D0A0FB02CE4FF00005E1FB02E506F040
:101040000042E0FB03E54FF00006E1FB03569CF095
:10105000000F18BF4EF0010EA4F1FF04B6F5007F9B
:1010600064F5407404D25FEA4E0E6D4146EB06060D
:1010700042EAC62141EA55514FEAC52040EA5E5096
:101080004FEACE2EB4F1FD0C88BFBCF5E06F1ED840
:10109000BEF1004F08BF5FEA500E50F1000041EB77
:1010A000045170BD06F0004646EA010140EA020024
:1010B00081EA0301B4EB5C04C2BFD4EB0C0541EA46
:1010C000045170BD41F480114FF0000E013C00F35B
:1010D000AB8014F1360FDEBF002001F0004170BD7F
:1010E000C4F10004203C35DA0C341BDC04F1140498
:1010F000C4F1200500FA05F320FA04F001FA05F224
:1011000040EA020001F0004221F0004110EBD370F0
:1011100021FA04F642EB06015EEA430E08BF20EA1C
:10112000D37070BDC4F10C04C4F1200500FA04F3BF
:1011300020FA05F001FA04F240EA020001F0004151
:1011400010EBD37041F100015EEA430E08BF20EAC4
:10115000D37070BDC4F1200500FA05F24EEA020E0C
:1011600020FA04F301FA05F243EA020321FA04F03B
:1011700001F0004121FA04F220EA020000EBD370F2
:101180005EEA430E08BF20EAD37070BD94F0000FF2
:101190000FD101F00046400041EB010111F4801F26
:1011A00008BF013CF7D041EA060195F0000F18BFD7
:1011B000704703F00046520043EB030313F4801F13
:1011C00008BF013DF7D043EA0603704794EA0C0FCD
:1011D0000CEA135518BF95EA0C0F0CD050EA4106E3
:1011E00018BF52EA4306D1D181EA030101F0004160
:1011F0004FF0000070BD50EA410606BF1046194688
:1012000052EA430619D094EA0C0F02D150EA013693
:1012100013D195EA0C0F05D152EA03361CBF1046D4
:1012200019460AD181EA030101F0004141F0FE4173
:1012300041F470014FF0000070BD41F0FE4141F4F7
:10124000780170BD70B54FF0FF0C4CF4E06C1CEAF7
:1012500011541DBF1CEA135594EA0C0F95EA0C0FAC
:1012600000F0A7F8A4EB050481EA030E52EA033567
:101270004FEA013100F088804FEA03334FF0805588
:1012800045EA131343EA12634FEA022245EA1115B5
:1012900045EA10654FEA00260EF000419D4208BF66
:1012A000964244F1FD0404F5407402D25B084FEA13
:1012B0003202B61A65EB03055B084FEA32024FF4BF
:1012C00080104FF4002CB6EB020E75EB030E22BF1C
:1012D000B61A754640EA0C005B084FEA3202B6EBDC
:1012E000020E75EB030E22BFB61A754640EA5C008B
:1012F0005B084FEA3202B6EB020E75EB030E22BF1B
:10130000B61A754640EA9C005B084FEA3202B6EB1B
:10131000020E75EB030E22BFB61A754640EADC00DA
:1013200055EA060E18D04FEA051545EA16754FEA3C
:1013300006164FEAC30343EA52734FEAC2025FEA5A
:101340001C1CC0D111F4801F0BD141EA00014FF0E9
:1013500000004FF0004CB6E711F4801F04BF0143BA
:101360000020B4F1FD0C88BFBCF5E06F3FF6AFAED6
:10137000B5EB030C04BFB6EB020C5FEA500C50F166
:10138000000041EB045170BD0EF0004E4EEA1131E9
:1013900014EB5C04C2BFD4EB0C0541EA045170BDF0
:1013A00041F480114FF0000E013C90E645EA060E34
:1013B0008DE60CEA135594EA0C0F08BF95EA0C0F62
:1013C0003FF43BAF94EA0C0F0AD150EA01347FF4AA
:1013D00034AF95EA0C0F7FF425AF104619462CE781
:1013E00095EA0C0F06D152EA03353FF4FDAE1046E4
:1013F000194622E750EA410618BF52EA43067FF435
:10140000C5AE50EA41047FF40DAF52EA43057FF4C4
:10141000EBAE12E74FF0FF3C06E000BF4FF0010CCF
:1014200002E000BF4FF0010C4DF804CD4FEA410C33
:101430007FEA6C5C4FEA430C18BF7FEA6C5C1BD000
:1014400001B050EA410C0CBF52EA430C91EA030F81
:1014500002BF90EA020F0020704710F1000F91EADE
:10146000030F58BF994208BF90422CBFD8176FEAAC
:10147000E37040F0010070474FEA410C7FEA6C5C7A
:1014800002D150EA013C07D14FEA430C7FEA6C5C81
:10149000D6D152EA033CD3D05DF8040B704700BFAD
:1014A0008446104662468C461946634600E000BFFB
:1014B00001B5FFF7B7FF002848BF10F1000F01BDCD
:1014C0004DF808EDFFF7F4FF0CBF012000205DF898
:1014D00008FB00BF4DF808EDFFF7EAFF34BF01201D
:1014E00000205DF808FB00BF4DF808EDFFF7E0FFB6
:1014F00094BF012000205DF808FB00BF4DF808ED07
:10150000FFF7CEFF94BF012000205DF808FB00BF6D
:101510004DF808EDFFF7C4FF34BF012000205DF84F
:1015200008FB00BF4FEA410C7FEA6C5C02D150EA35
:10153000013C0AD14FEA430C7FEA6C5C02D152EACB
:10154000033C02D14FF0000070474FF0010070479C
:101550004FEA410212F5001215D211D56FF47873DB
:10156000B3EB625212D94FEAC12343F0004343EA7E
:10157000505311F0004F23FA02F018BF4042704759
:101580004FF00000704750EA013005D111F00040E3
:1015900008BF6FF0004070474FF00000704700BF79
:1015A00053B94AB9002908BF00281CBF4FF0FF31CA
:1015B0004FF0FF30FFF7A4BCADF1080C6DE904CE8D
:1015C000FFF73CFBDDF804E0DDE9022304B07047DF
:1015D0002DE9F04389B000240494059406940794FF
:1015E0002D4B9A6942F010029A619A6902F010023A
:1015F0000092009A9A6942F020029A619A6902F078
:1016000020020192019A9A6942F004029A619A6951
:1016100002F004020292029A9A6942F008029A6168
:101620009B6903F008030393039BDFF87490224641
:101630004FF40051484603F0E3FBDFF86880224690
:101640003F21404603F0DCFB144F22461821384668
:1016500003F0D6FB4FF4005304930126059606943D
:101660000225079504A9484603F0BAFA3F230493DC
:1016700005960694079504A9404603F0B1FA18238D
:10168000049305960694079504A9384603F0A8FA32
:1016900009B0BDE8F08300BF00100240000C01401B
:1016A000001001400008014008B50B480B4B0360D7
:1016B0000B4B436000238360C3604FF480420261A0
:1016C00043618361C361036203F0E8FD00B908BDB3
:1016D00000F03AF8FBE700BF281200200054004059
:1016E000801A060010B586B000230293039304937A
:1016F00005930268114B9A4201D006B010BD104C00
:10170000A36943F00803A361A36903F008030093EE
:10171000009BC0230293122303930323059302A982
:10172000084803F05DFAE36943F40013E361E369F9
:1017300003F400130193019BDFE700BF0054004056
:1017400000100240000C014072B6FEE700B591B0F7
:10175000002309930B930C93019302930393049337
:101760000593012106914FF48032079208930A9164
:1017700002230D930E924FF4E0130F9306A804F08A
:10178000D5F880B90F23019302210291002303931E
:101790004FF480620492059301A804F005FB20B980
:1017A00011B05DF804FBFFF7CFFFFFF7CDFF00009E
:1017B00000B583B003F080F9FFF7C8FFFFF708FF1B
:1017C00000F0F2FBFFF770FF00F085FA0B23494AA7
:1017D0000021084600F064FA4FF47A7003F090F9A3
:1017E00000F0EAF900F0F0FD0C23434A002108461E
:1017F00000F056FA4FF47A7003F082F900F0DCF949
:1018000000F0A6F80C233D4A0021084600F048FAF3
:101810004FF47A7003F074F900F0CEF9384BB3F955
:101820000000FEF75BFF3749FFF760F80446364BD0
:10183000B3F90000FEF752FF3449FFF757F80646A8
:101840002046FEF7E9FD04460D463046FEF7E4FD6E
:10185000CDE9000122462B462D4804F067FD2D4BB3
:10186000B3F90000FEF73AFF2649FFF73FF80446B8
:10187000294BB3F90000FEF731FF2449FFF736F892
:1018800006462046FEF7C8FD04460D463046FEF7E4
:10189000C3FDCDE9000122462B46204804F046FD59
:1018A0001F4BB3F90000FEF719FF1649FFF71EF8AA
:1018B00004461C4BB3F90000FEF710FF1349FFF775
:1018C00015F806462046FEF7A7FD04460D463046AD
:1018D000FEF7A2FDCDE9000122462B46124804F096
:1018E00025FD124804F084FD4FF4FA7003F008F966
:1018F00094E700BF00BF00080CBF00081CBF000831
:101900008A12002000FC7F4696120020000003434C
:1019100030BF00088E1200209A1200204CBF000831
:10192000921200209E12002068BF000884BF0008A9
:1019300010B584B0022402940193009201230A4658
:101940000146024803F03AFE04B010BD2812002000
:1019500010B5224C0E2322463B21D020FFF7E8FF92
:101960002278637803EB02239BB21D4A12889B1AEC
:101970001C4A1380A278E37803EB02239BB21A4A35
:1019800012889B1A194A13802279637903EB022388
:101990009BB2174A12889B1A164A1380227A637ADE
:1019A00003EB02239BB2144A12889B1A134A13803A
:1019B000A27AE37A03EB02239BB2114A12889B1AA4
:1019C000104A1380227B637B03EB02239BB20E4AF7
:1019D00012889B1A0D4A138010BD00BF7C12002094
:1019E0008C1200208A120020901200208E120020FB
:1019F00094120020921200209812002096120020CB
:101A00009C1200209A120020A01200209E1200209A
:101A100010B50B4C01220821204603F0F1F90122F8
:101A20001021204603F0ECF900221021204603F09B
:101A3000E7F900220821204603F0E2F910BD00BFBB
:101A4000000C014010B5084C01220821204603F08B
:101A5000D7F900221021204603F0D2F901221021EB
:101A6000204603F0CDF910BD000C014010B5064C26
:101A700001220821204603F0C3F900220821204654
:101A800003F0BEF910BD00BF000C014070B5044664
:101A900000220821124803F0B3F9002513E00122C7
:101AA00010210F4803F0ACF96400E4B20C4E01229F
:101AB0000821304603F0A4F900220821304603F043
:101AC0009FF90135EDB2072D08D814F0800FE6D14B
:101AD00000221021024803F093F9E5E770BD00BF32
:101AE000000C014010B50446FFF792FF7820FFF785
:101AF000CDFFFFF7BBFF0020FFF7C8FFFFF7B6FFE2
:101B00002046FFF7C3FFFFF7B1FFFFF79BFF10BDB4
:101B100010B50446FFF77CFF7820FFF7B7FFFFF70B
:101B2000A5FF4020FFF7B2FFFFF7A0FF2046FFF719
:101B3000ADFFFFF79BFFFFF785FF10BD08B519B19B
:101B4000C0B2FFF7E5FF08BDC0B2FFF7CBFFFAE771
:101B500070B50546002601E00136F6B2072E17D80B
:101B6000002106F1B000FFF7E9FF00210846FFF76A
:101B7000E5FF00211020FFF7E1FF002414F0800FA3
:101B8000EAD101212846FFF7D9FF0134E4B2F5E795
:101B900070BD10B5044608460021B030FFF7CEFFF7
:101BA0002009002140F01000FFF7C8FF002104F0D9
:101BB0000F00FFF7C3FF10BD38B5002501E0013568
:101BC000EDB2072D17D8002105F1B000FFF7B6FFE1
:101BD00000210846FFF7B2FF00211020FFF7AEFFFB
:101BE000002414F0800FEAD101210020FFF7A6FFA6
:101BF0000134E4B2F5E738BDF8B507460E46203AA1
:101C0000D5B210F0800F14D1102B16D031463846C3
:101C1000FFF7BFFF0024052C33D805EB4503194A15
:101C200002EB43030121185DFFF788FF0134E4B2A2
:101C3000F1E70236F6B20027E6E731463846FFF70D
:101C4000A8FF002408E004EB051301210E4AD05C34
:101C5000FFF774FF0134E4B2072CF4D9711CC9B248
:101C60003846FFF796FF002409E004EB051308331C
:101C70000121054AD05CFFF761FF0134E4B2072C73
:101C8000F3D9F8BD00000020280200200246012000
:101C90004B1EDBB219B102FB00F01946F8E77047A2
:101CA0002DE9F04104460E4617469846002501E00E
:101CB0000135EDB27A5D62B1434631462046FFF709
:101CC0009BFF0834E4B2782CF2D90236F6B2002435
:101CD000EEE7BDE8F08108B50021AE20FFF72EFF4A
:101CE00000210846FFF72AFF00211020FFF726FFFA
:101CF00000214020FFF722FF0021B020FFF71EFF48
:101D000000218120FFF71AFF0021FF20FFF716FFB7
:101D10000021A120FFF712FF0021A620FFF70EFFF0
:101D20000021A820FFF70AFF00213F20FFF706FF50
:101D30000021C820FFF702FF0021D320FFF7FEFE9D
:101D400000210846FFF7FAFE0021D520FFF7F6FE36
:101D500000218020FFF7F2FE0021D820FFF7EEFEE1
:101D600000210520FFF7EAFE0021D920FFF7E6FE5B
:101D70000021F120FFF7E2FE0021DA20FFF7DEFE6E
:101D800000211220FFF7DAFE0021DB20FFF7D6FE4C
:101D900000213020FFF7D2FE00218D20FFF7CEFE7C
:101DA00000211420FFF7CAFE0021AF20FFF7C6FE76
:101DB0000020FFF7CDFE08BD2DE9F84F80460F4605
:101DC00092461D469DF828909DF82C601046FEF71F
:101DD0009FFE04464FF0000BAB4523D2A5EB0B0151
:101DE000C9B20139C9B20A20FFF750FFB4FBF0F0C5
:101DF000304AA2FB0032D20802EB8202A0EB420280
:101E0000D2B2700800FB0BF0C0B23032404433460F
:101E1000D2B23946C0B2FFF7EFFE0BF1010B5FFA09
:101E20008BFBD9E74FEA560B05FB0BF0C0B24044E1
:101E300033462E223946C0B2FFF7DEFE2046FEF7BB
:101E40004DFC01465046FEF793FB044649460A20E6
:101E5000FFF71CFFFEF73EFC2146FEF793FCFEF762
:101E600057FE8246002420E0A9EB0401C9B20139E3
:101E7000C9B20A20FFF70AFFBAFBF0F00D4AA2FB35
:101E80000032D20802EB8202A0EB4202D2B2601909
:101E900000FB0B80C0B2303205303346D2B2394637
:101EA000C0B2FFF7A9FE0134E4B24C45DCD3BDE873
:101EB000F88F00BFCDCCCCCC82B00E4B9A6942F0EB
:101EC00001029A619A6902F001020092009ADA69AD
:101ED00042F08052DA61DB6903F080530193019B89
:101EE000054A536823F0E06343F08063536002B017
:101EF000704700BF0010024000000140FEE7FEE70F
:101F0000FEE7FEE7FEE770477047704708B502F04E
:101F1000E5FD08BD70B50C4616460025B54207DA4A
:101F2000AFF30080214601F8010B01350C46F5E7BF
:101F3000304670BD70B50C4616460025B54205DA30
:101F400014F8010B00F086F80135F7E7304670BD54
:101F500008B503460B4A126842B10A4A10680344A6
:101F60006A46934206D8074A136008BD054A0649E7
:101F70001160F2E704F032F90C2303604FF0FF30F8
:101F8000F3E700BFA4120020601300204FF0FF30E1
:101F900070474FF400534B6000207047012070479A
:101FA000002070477047000008B50A480A4B0360DC
:101FB0004FF4E133436000238360C36003610C226C
:101FC00042618361C36104F047F800B908BDFFF7BF
:101FD000BBFBFBE7A81200200038014010B586B01B
:101FE000002302930393049305930268174B9A42CC
:101FF00001D006B010BD03F558439A6942F48042FF
:102000009A619A6902F480420092009A9A6942F0B9
:1020100004029A619B6903F004030193019B4FF44E
:10202000007302930223039303230593084C02A930
:10203000204602F0D5FD4FF4806302930023039302
:10204000049302A9204602F0CBFDD2E700380140FC
:102050000008014000B583B001904FF6FF730122E4
:1020600001A9034804F027F8019803B05DF804FBC8
:10207000A812002010B588B002A905A801F094FEAE
:10208000032802D0012008B010BD01A801F000F91A
:10209000019C0598FEF722FB2146FEF773FBFEF735
:1020A00037FD05900698FEF719FB2146FEF76AFBFF
:1020B000FEF72EFD06900798FEF710FB2146FEF76F
:1020C00061FBFEF725FD079005A801F0BBFF0DF1B0
:1020D000020001F003F9BDF80230029A03FB02F29C
:1020E0000292039A03FB02F20392049A03FB02F3A7
:1020F000049302A802F02CF80020C4E790F9003005
:10210000002B01DD002070470FDB90F90130002B20
:1021100001DD012070470ADB90F90230002B08DC5A
:1021200001DB072070470620704704207047052018
:1021300070470220704738B50546FFF7DFFF0446B9
:10214000E81CFFF7DBFF44EAC00424B2A81DFFF738
:10215000D5FF44EA801080B238BD000008B50020E9
:1021600001F0F4FBC0BB782001F072FB10F0FF0F10
:1021700001D0012031E0782001F0DEF810F0FF0FEF
:102180002CD1C82001F00CFB10F0FF0F28D101F07A
:10219000ABFE10F0FF0F25D11748FFF7CCFF01F081
:1021A000AFFE10F0FF0F1FD140F2731002F064FA7F
:1021B00010F0FF0F1AD1C82002F040F810F0FF0F06
:1021C00016D1FFF757FFA8B9012001F097FD10F0D5
:1021D000FF0002D0092000E00A2008BD0220FCE731
:1021E0000320FAE70420F8E70520F6E70620F4E7E5
:1021F0000720F2E70820F0E71C080020000000009C
:102200002DE9F04F8FB00646029193460DF1210360
:1022100001930DF1220300930DAB04AA09A90BA8A9
:1022200002F036FB002840F0C780BDF8223013F4DE
:10223000807F00F0C3800498FEF750FA4FF04251BF
:10224000FEF7A0FA82460598FEF748FA4FF0425191
:10225000FEF798FA05460698FEF740FA4FF042510D
:10226000FEF790FA04460798FEF738FA4FF042510D
:10227000FEF788FA07464FF040412846FEF782FAFB
:1022800081463946FEF77EFA804651465046FEF7B3
:1022900071F903902146FEF775FA01464046FEF7B4
:1022A00069F9FEF7B9F809F03BF845A3D3E9002333
:1022B000FEF79EFEFEF708F9306021462046FEF745
:1022C00059F980463946FEF75DFA064629460398D5
:1022D000FEF758FA01463046FEF74CF90646294605
:1022E0004846FEF74FFA814621464046FEF74AFA35
:1022F00001464846FEF73CF94FF07E51FEF73AF9A9
:10230000FEF78AF8804689463046FEF785F8424651
:102310004B4609F05DF82AA3D3E90023FEF768FED7
:10232000FEF7D2F8029B186021462846FEF72AFAEB
:10233000064639465046FEF725FA01463046FEF776
:1023400019F90146FEF716F9064651465046FEF7C2
:1023500019FA804629462846FEF714FA01464046F7
:10236000FEF708F9054621462046FEF70BFA01461E
:102370002846FEF7FDF8044639463846FEF702FACD
:1023800001462046FEF7F4F8FEF746F804460D46EF
:102390003046FEF741F822462B4609F019F808A30B
:1023A000D3E90023FEF724FEFEF78EF8CBF80000F9
:1023B00000200FB0BDE8F08F0120FAE70220F8E717
:1023C0006666666666A64C4030B589B04FF4FA7012
:1023D00002F096FBFFF7C2FE04460AE04FF4FA70E3
:1023E00002F08EFBFFF7BAFE04460146424803F0B6
:1023F0009DFF002CF2D1414803F0FAFF0FE004F1F9
:10240000004448E004F100445CE00C2301930623FF
:1024100000930323224604214020FFF7CDFC05AAA8
:1024200006A907A8FFF7ECFE0028F8D10798FDF7EA
:10243000F3FF04460D460598FDF7EEFFCDE90201D6
:102440000698FDF7E9FFCDE9000122462B462C480E
:1024500003F06CFF0798FDF7DFFF04460D46059873
:10246000FDF7DAFFCDE902010698FDF7D5FFCDE9CA
:10247000000122462B46234803F058FF0C23224A32
:1024800000210846FFF70CFC079C00212046FEF7C0
:1024900017FB0028B3D10C250195062300930323D5
:1024A000224600214020FFF787FC2B46174A0221D5
:1024B0000020FFF7F5FB069C00212046FEF700FBFD
:1024C00000289FD10C250195062300930323224663
:1024D00002214020FFF770FC2B460D4A042100200A
:1024E000FFF7DEFB059C00212046FEF7E9FA0028F5
:1024F0008BD004F1004488E7C0BF0008D8BF0008B3
:10250000ECBF000808C0000814C000081CC0000888
:1025100024C00008F0B587B007462D4B5B681978DA
:10252000022302930423019305AB009301230D22A0
:10253000284803F043F8002848D104469DF81420A9
:10254000D21002F01C029DF81710C1F301131A43B8
:102550008DF810209DF81520D21002F01C02C1F356
:1025600081031A438DF811209DF81630DB1003F01B
:102570001C0301F003010B438DF8123016E007EB4A
:102580008405154B47F8243004E014492868FEF709
:10259000F9F8286006AB9A1912F8083C013BDBB247
:1025A00002F8083C002BF0D10134E4B2022C0AD826
:1025B000264606AB234413F8083C002BDFD100234A
:1025C00047F82430F0E7002007B0F0BD0720FBE714
:1025D00028080020281200207B14AE3E1D5A843F9C
:1025E0002DE9F04385B08146884601A8FFF792FFA8
:1025F00000273C4610E005F1004537E0224930460F
:10260000FEF75EFA20B921493046FEF777FA10B19D
:102610000123A3401F430134022C31DCA50059F8EB
:10262000240058F82430C01A0028B8BF4042FEF7F2
:1026300055F84FF05E51FEF7A5F8064604AB1D4471
:1026400055F80C5C00212846FEF730FA0028D5D159
:1026500029463046FEF74AF94FF07E51FDF788FFD4
:1026600005460021FEF74AFA0028C4D0084928464A
:10267000FEF744FA0028CED00123A3401F43CAE747
:10268000384605B0BDE8F0839A99993E3333733FDD
:10269000295C0F3E2DE9F04186B0074688463C4B49
:1026A0005B681978022302930323019305AB00931F
:1026B00001230D22374802F081FF002863D19DF8E5
:1026C000143003F01F038DF814309DF8153003F01B
:1026D0001F038DF815309DF8163003F01F038DF899
:1026E0001630002634462BE02B49FEF74BF806AB9C
:1026F0001A1912F8043C013BDBB202F8043C002B2F
:10270000F2D101462846FEF7F1F84FF07E51FDF771
:102710002FFF05460021FEF7F1F950B11F49284669
:10272000FEF7ECF958B10123A3401E4307E01C4813
:10273000DDE705F10045F1E70123A3401E43013425
:10274000022C21DC57F8240058F82430C01A002845
:10275000B8BF4042FDF7C2FF4FF05E51FEF712F8DE
:10276000054606AB234413F8043C002BDFD10D498A
:10277000FEF7A6F90028DFD10B492846FEF7BEF97F
:102780000028DCD0D8E70726304606B0BDE8F08147
:10279000280800202812002054E3853F295C0F3EC2
:1027A0000000C841000020410000D24200B587B0BF
:1027B000284B93F82430F3B1C8B102238DF81730B9
:1027C000244B59681B685A7C097802230293012321
:1027D00001930DF1170000901F4802F03DFE70BB01
:1027E0009DF817201B4B5A7407B05DF804FB0023BB
:1027F0008DF81730E4E7174B9B7A1BB310B1154BDC
:102800005B7C13BBB8B101238DF81730114B5968AD
:102810001B685A7C097802230293012301930DF16E
:10282000170000900C4802F017FE80B99DF81720A1
:10283000084B5A74D8E700238DF81730E6E74FF0BD
:10284000FF30D1E74FF0FF30CEE70020CCE74FF06C
:10285000FF30C9E728080020281200202DE9F043A6
:1028600089B004460D46164601238DF81430002227
:102870008DF81520A24A51681268527D097802200D
:102880000290019005A800909E4802F0E5FD002806
:1028900040F02B82C82002F033F900238DF8143069
:1028A000974B59681B685A7C0978022302930123CD
:1028B000019305A80090934802F0CEFD002840F057
:1028C00017828F4B59681B685A7909780223029343
:1028D0000123019305A800908A4802F0BDFD00285D
:1028E00040F00982864B59681B685A7D097802239B
:1028F00002930123019305A80090824802F0ACFDE9
:10290000002840F0FB817E4B59681B689A7E09784D
:10291000022302930123019305A80090794802F055
:102920009BFD002840F0ED81754B59681B681A79B2
:102930000978022302930123019305A800907148AE
:1029400002F08AFD002840F0DF810C238DF814305E
:102950006B4B59681B681A7909780223029301238B
:10296000019305A80090674802F076FD002840F02A
:10297000CE810F2002F0C4F8614B9A6A527A8DF82A
:10298000142059681B689A7809780223029301235E
:10299000019305A800905B4802F05EFD002840F01E
:1029A000B981574B9A6A127A8DF8142059681B68BE
:1029B0005A780978022302930123019305A8009015
:1029C000504802F049FD002840F0A781002E00F099
:1029D000F3804B4B9B6A9B7A63F01F038DF8143096
:1029E000474B59681B689A7909780223029301239F
:1029F000019305A80090434802F02EFD002840F006
:102A00008F81002E00F0DE803D4B9B6ADB7A63F005
:102A10001F038DF814303A4B59681B68DA7909782E
:102A2000022302930123019305A80090354802F088
:102A300013FD002840F07781002E40F0C78040232E
:102A40008DF814302E4B59681B681A7909780223C7
:102A500002930123019305A800902A4802F0FCFC90
:102A6000002840F0638178238DF81430244B596896
:102A70001B685A790978022302930123019305A860
:102A80000090204802F0E8FC002840F052813220FB
:102A900002F036F800238DF81430194B59681B6882
:102AA0005A790978022302930123019305A8009023
:102AB000144802F0D1FC002840F03E81104B5968C8
:102AC0001B681A7B097802230293019305AB0093DC
:102AD00001230C4802F072FD0646002840F02F81C9
:102AE0009DF814309DF8157047EA0327064BA3FBA9
:102AF0000737C7F3C7070023A3606360236005E0BF
:102B00002808002028120020ABAAAAAAAB606B609C
:102B10002B60BE425ED28E4B59681B685A7B097887
:102B2000022302930C23019305AB009301238948F0
:102B300002F044FD002840F005819DF814309DF816
:102B4000151041EA032109B29DF816309DF81720AF
:102B500042EA032212B29DF818009DF8193043EAA8
:102B600000231BB228680144296069680A446A602E
:102B7000AA681344AB609DF81A309DF81B2042EA06
:102B8000032212B29DF81C309DF81D1041EA03216A
:102B900009B29DF81E009DF81F3043EA00231BB2C6
:102BA000206802442260626811446160A268134494
:102BB000A3600136F6B2ACE7654B9B6A9B7A8DF851
:102BC00014300DE718238DF8143024E7C82001F0E5
:102BD00097FF34E721688322002308040914FDF7D6
:102BE000DDFFFEB2002732463B46FDF7D7FF2060EF
:102BF00061688322002308040914FDF7CFFF3246E1
:102C00003B46FDF7CBFF6060A168832200230804E8
:102C10000914FDF7C3FF32463B46FDF7BFFFA06036
:102C20002B684FEA03484FEA2349B8F1000F79F1C6
:102C300000033ADB4FEAD82032463B4640EA49508F
:102C40004FEAE921FDF7AAFF28606B684FEA0348C5
:102C50004FEA2349B8F1000F79F100032EDB4FEA68
:102C6000D82032463B4640EA49504FEAE921FDF779
:102C700095FF6860AB684FEA03484FEA2349B8F113
:102C8000000F79F1000322DB4FEAD82032463B46A1
:102C900040EA49504FEAE921FDF780FF00281FDD97
:102CA000A0F58030A86000204EE040F2FF7318EBE2
:102CB00003084FF0000349EB0309BBE740F2FF7341
:102CC00018EB03084FF0000349EB0309C7E740F294
:102CD000FF7318EB03084FF0000349EB0309D3E738
:102CE00000F58030A86000202EE04FF0FF302BE090
:102CF0004FF0FF3028E04FF0FF3025E04FF0FF307D
:102D000022E04FF0FF301FE04FF0FF301CE04FF0AB
:102D1000FF3019E04FF0FF3016E04FF0FF3013E0C6
:102D20004FF0FF3010E04FF0FF300DE04FF0FF307C
:102D30000AE04FF0FF3007E04FF0FF3004E04FF0C3
:102D4000FF3001E04FF0FF3009B0BDE8F08300BF75
:102D500028080020281200209A4B9B7A002B00F0B4
:102D60000F8100B587B000238DF81730954B596857
:102D70001B685A7C097802230293012301930DF109
:102D800017000090904802F067FB002840F0FB809D
:102D90008C4B59681B685A790978022302930123E6
:102DA00001930DF117000090874802F055FB0028B1
:102DB00040F0EC80834B59681B681A79097802232C
:102DC0000293012301930DF1170000907E4802F059
:102DD00043FB002840F0DD807A4B93F82430002B31
:102DE00069D00C238DF81730764B59681B681A7917
:102DF000097802230293012301930DF1170000903B
:102E0000714802F029FB002840F0C680322001F012
:102E100077FEC0238DF817306A4B9B7A13F0010FB1
:102E200002D0E0238DF81730664B59681B681A7979
:102E3000097802230293012301930DF117000090FA
:102E4000614802F009FB002840F0A9805D4B5B7CE3
:102E5000002B2CD002238DF817305A4B59681B6871
:102E60005A7C097802230293012301930DF1170084
:102E70000090554802F0F0FA002840F093800023BB
:102E80008DF817304F4B59681B685A79097802231F
:102E90000293012301930DF1170000904A4802F0BC
:102EA000DBFA002840F0818007B05DF804FB0023C6
:102EB0008DF81730D1E704238DF81730414B59684E
:102EC0001B681A79097802230293012301930DF1FB
:102ED000170000903C4802F0BFFA002868D1394B37
:102EE0009B7C23B9374B9B7A13F0010F40D14023D1
:102EF0008DF81730334B59681B681A79097802230B
:102F00000293012301930DF1170000902E4802F067
:102F1000A3FA00284FD1322001F0F2FD294B5B7C4F
:102F200053B301238DF81730264B59681B685A7C20
:102F3000097802230293012301930DF117000090F9
:102F4000214802F089FA002838D11E48436850F819
:102F5000102B5279197802230293012301930090D8
:102F6000194802F079FA00289ED04FF0FF309BE715
:102F700060238DF81730BDE700238DF81730D3E7B5
:102F80004FF0FF3070474FF0FF308DE74FF0FF30CC
:102F90008AE74FF0FF3087E74FF0FF3084E74FF0CC
:102FA000FF3081E74FF0FF307EE74FF0FF307BE7E7
:102FB0004FF0FF3078E74FF0FF3075E74FF0FF300C
:102FC00072E700BF28080020281200200D4B1B7A52
:102FD000032B13D8DFE803F002060A0EFA2303805E
:102FE000002070474FF4FA730380F9E74FF47A73C7
:102FF0000380F5E74FF4FA630380F1E700230380D1
:10300000EEE700BF28080020264B9B7A002B41D01A
:1030100000B587B0B0F57A7F38D00BD8FA2813D036
:10302000B0F5FA7F03D108238DF817300FE04FF089
:10303000FF3028E0B0F5FA6F03D118238DF8173070
:1030400005E04FF0FF301EE000238DF81730154BE0
:103050001B7A9DF81720B3EBD20F1ED0114B596885
:103060001B689A79097802230293012301930DF1D9
:10307000170000900C4802F0EFF980B99DF8173066
:10308000DB08084A137207B05DF804FB10238DF8C3
:103090001730DCE74FF0FF3070470020F3E74FF0C8
:1030A000FF30F0E728080020281200200F4B5B7A41
:1030B000032B16D8DFE803F0020C0F120223037073
:1030C0000A4BDB7C83B103785B0003700020704700
:1030D00004230370F4E708230370F1E7102303705F
:1030E000EEE74FF0FF3070470020704728080020BF
:1030F000254B9B7A002B3CD000B587B002380E28B8
:103100003AD8DFE800F008392A3939392E39393907
:1031100039393939320000238DF817301A4B5B7A70
:103120009DF81720B3EBD20F29D0174B59681B68B5
:10313000DA79097802230293012301930DF1170034
:103140000090124802F088F9D8B99DF81730DB08D2
:103150000D4A537207B05DF804FB08238DF8173051
:10316000DCE710238DF81730D8E718238DF81730D7
:10317000D4E74FF0FF3070474FF0FF30EAE7002010
:10318000E8E74FF0FF30E5E728080020281200208C
:103190000F4BDB7A013B052B17D8DFE803F0030761
:1031A0000A0D1013BC2303800020704762230380A4
:1031B000FAE72A230380F7E714230380F4E70A23BE
:1031C0000380F1E705230380EEE700230380EBE7AC
:1031D00028080020254B9B7A002B3FD000B587B0F4
:1031E000BB281FD901238DF81730204BDA7A9DF8C0
:1031F00017309A4235D01D4B59681B689A78097868
:1032000002230293012301930DF117000090184847
:1032100002F022F938BB9DF81720144BDA7207B080
:103220005DF804FB612803D902238DF81730DCE731
:10323000292803D903238DF81730D6E7132803D99B
:1032400004238DF81730D0E7092803D905238DF81A
:103250001730CAE706238DF81730C6E74FF0FF3066
:1032600070470020DBE74FF0FF30D8E72808002048
:1032700028120020054B93F8243023B9034BDB8937
:103280000380002070474FF0FF307047280800206F
:103290000D4B1B7A032B13D8DFE803F002060A0E4E
:1032A0000A4B036000207047094B03600020704701
:1032B000084B036000207047074B036000207047F5
:1032C0004FF0FF30704700BF280800200000034384
:1032D000000083423333034233338341114B5B7A23
:1032E000032B1AD8DFE803F0020D11154FF48043C9
:1032F00003800C4BDB7C9BB103885B0803800020C0
:10330000704741F69C730380F3E74FF480530380CA
:10331000EFE74FF400630380EBE74FF0FF307047B7
:103320000020704728080020024B1B7C03700020FF
:10333000704700BF2808002070B5174B93F8243061
:103340002BBB00F0FE04144B9B7A13B3124A167C7D
:1033500023401374A3420BD04FF0FF3514B90E4B2A
:103360001B7D3BB10120FFF721FA3CB9284670BD17
:103370000025F3E70020FFF719FAF6E7FFF7ECFC6A
:103380000028F3D0044B1E744FF0FF35EEE7002504
:10339000ECE74FF0FF35E9E728080020354B93F8BC
:1033A0002430002B57D0F0B587B005460F4616469F
:1033B000304B9B7A002B51D02E4B59681B681A7BDF
:1033C000097802230293019305AB009301232A4855
:1033D00002F0F4F8002844D19DF814009DF815403F
:1033E00044EA0024AC422CD3224B5B685A88B4EBED
:1033F000520F12D91F4A1268D27C19780223029305
:103400000123019305A800901B4802F0D7F858BB90
:103410009DF8143013F0100F18D1164B59681B6823
:103420005A7B0978022302930195009701231248E1
:1034300002F0C4F8D8B9B4FBF5F4013C347007B01D
:10344000F0BD002333704FF0FF30F8E7FFF784FC46
:103450006FF00100F3E74FF0FF3070474FF0FF309F
:10346000EDE74FF0FF30EAE74FF0FF30E7E74FF0CE
:10347000FF30E4E72808002028120020684B9B7CDE
:10348000834200F0BB8010B586B00446002854D0BB
:10349000634B59681B681A79097802230293012348
:1034A00001930DF1170000905E4802F087F80028A4
:1034B00040F0A6809DF8173023F020038DF81730D8
:1034C000574B59681B681A79097802230293012324
:1034D00001930DF117000090524801F0BDFF002844
:1034E00040F09180032001F00BFB02238DF8173090
:1034F0004B4B93F8223013B182238DF81730484B91
:1035000093F823302BB19DF8173043F030038DF83A
:103510001730434B59681B68DA7D09780223029300
:10352000012301930DF1170000903E4801F094FF34
:10353000002853D04FF0FF3053E0394B59681B68D7
:103540001A79097802230293012301930DF11700E0
:103550000090344802F032F8002857D1304B9B7A63
:1035600013F0010F3FD09DF8173043F020038DF882
:1035700017302B4B59681B681A790978022302937C
:10358000012301930DF117000090264801F064FF1C
:1035900000283ED1032001F0B3FA214B93F82230EA
:1035A00043B380238DF817301D4B93F823302BB194
:1035B0009DF8173043F030038DF81730184B5968D9
:1035C0001B68DA7D097802230293012301930DF130
:1035D00017000090134801F03FFFE8B9104B9C74AE
:1035E000002006B010BD9DF8173023F020038DF8A1
:1035F0001730BEE700238DF81730D5E7002070475D
:103600004FF0FF30EDE74FF0FF30EAE74FF0FF30CB
:10361000E7E74FF0FF30E4E74FF0FF30E1E700BFAE
:1036200028080020281200201E4B93F823308342E4
:1036300032D010B586B0044650B330238DF8173021
:10364000184B9B7C2BB19DF8173043F002038DF88B
:103650001730144B93F822302BB19DF8173063F0DC
:103660007F038DF817300F4B59681B68DA7D097896
:1036700002230293012301930DF1170000900A48E1
:1036800001F0EAFE50B9074B83F8234006B010BDA5
:1036900000238DF81730D3E7002070474FF0FF303C
:1036A000F4E700BF2808002028120020282869D845
:1036B00010B586B00446E0B90020FFF7B5FF00233F
:1036C0008DF8143007238DF81530334B59681B687B
:1036D0005A7D097802230293019305AB00930123DD
:1036E0002E4801F0B9FE00284FD12B4B187506B0BB
:1036F00010BD0120FFF798FF20238DF81430012C16
:103700002BD0052C30D9142C35D802238DF8153048
:103710000A20FFF75FFD9DF815309B0143F007037A
:103720008DF815301C4B59681B685A7D09780223A7
:103730000293019305AB00930123184801F08CFE1E
:1037400030BB154B08229A7200241C7301221A7593
:103750002046FFF7F1FD2046C9E700238DF815301C
:103760000520FFF737FDD6E701238DF8153005203A
:10377000FFF730FDCFE703238DF815301420FFF756
:1037800029FDC8E74FF0FF3070474FF0FF30AEE73C
:103790004FF0FF30ABE700BF2808002028120020C0
:1037A000294B9B7A002B45D010B586B00446264B9A
:1037B00093F82430002B40D1234B1B7D33B1431EA3
:1037C0009BB2272B0AD90020FFF770FF032C0AD9E0
:1037D000B4F57A7F08D94FF47A7405E0C0B2FFF7E8
:1037E00065FF002024E004244FF47A7090FBF4F489
:1037F000013C8DF81740144B59681B685A780978BA
:1038000002230293012301930DF1170000900F484A
:1038100001F022FEA0B99DF81700431C4FF47A7006
:1038200090FBF3F0084BD8814008FFF7D3FC002051
:1038300006B010BD4FF0FF3070474FF0FF30F7E794
:103840004FF0FF30F4E700BF2808002028120020C6
:1038500010B586B0044610F0700F5AD001238DF8D1
:103860001730384B59681B685A7D09780223029338
:10387000012301930DF117000090334801F0ECFD96
:1038800000284FD19DF8173003F0BF032D4A137362
:1038900000238DF8173014F0400F02D104238DF867
:1038A000173014F0200F05D19DF8173043F00203B4
:1038B0008DF8173014F0100F05D19DF8173043F034
:1038C00001038DF8173014F0080F05D19DF817305B
:1038D00043F038038DF817301A4B59681B689A7DEE
:1038E000097802230293012301930DF11700009040
:1038F000154801F0B1FDD8B90CB1082C1ED1114BFF
:103900009C7200241C75322001F0FAF8204606B0A3
:1039100010BD18B100238DF81730A2E740238DF8B1
:1039200017309EE7074B00229A724FF0FF30EEE708
:10393000044B00229A724FF0FF30E8E70020FFF7B7
:1039400073FEDCE7280800202812002010B586B09E
:1039500080238DF810306D4B59681B685A7D0978AB
:10396000022302930123019304A80090684801F008
:1039700073FD002840F0A580642001F0C1F8002309
:103980008DF81030614B59681B685A7D0978022305
:1039900002930123019304A800905D4801F05CFDAF
:1039A000002840F09180594B59681B685A7E09786D
:1039B000022302930623019304AB0093012354488E
:1039C00001F0FCFD002840F082809DF815309B003E
:1039D00003F004029DF813305B0003F0020313436D
:1039E0009DF9112002F0010213434CD0012B46D067
:1039F000022B6FD1454B0022DA74444BFF229A729E
:103A00001A725A72DA724FF6FF71D9811A749A7467
:103A100001221A7383F82220002283F823205A758A
:103A20001A75C3F81620C3F81A20C3F81E2083F8AD
:103A3000242083F82520DA844FF4FA60FFF7E4FAB3
:103A4000002850D10220FFF753FB00284ED12A2036
:103A5000FFF7C0FB00284CD13220FFF7A1FE002861
:103A60004AD1FFF769FC002849D1FFF707FD04465A
:103A7000002847D1FFF7ECFE204606B010BD234BCF
:103A80000122DA74B9E7214B59681B68DA780978A2
:103A9000022302930123019304A800901C4801F023
:103AA0008DFDD0B99DF8103013F00F0318D0042B02
:103AB00003D0164B0022DA749FE7144B0122DA740C
:103AC0009BE74FF0FF34D7E74FF0FF34D4E74FF0D8
:103AD000FF34D1E74FF0FF34CEE74FF0FF34CBE7B0
:103AE0004FF0FF34C8E74FF0FF34C5E74FF0FF3425
:103AF000C2E74FF0FF34BFE74FF0FF34BCE74FF0B1
:103B0000FF34B9E74FF0FF34B6E700BF28080020C4
:103B100028120020002A31D030B587B00C46154657
:103B20001E4B9B7A002B2CD0030A8DF81430C0B2A8
:103B30008DF815000844194B5B685A89904223DCC4
:103B4000164A1268D27E197802230293019305ABBC
:103B500000930123124801F07FFCC0B90F4B596854
:103B60001B681A7E097802230293019400950123B1
:103B70000B4801F071FC68B907B030BD4FF0FF3061
:103B800070474FF0FF30F7E74FF0FF30F4E74FF0AA
:103B9000FF30F1E74FF0FF30EEE700BF28080020CC
:103BA00028120020002A31D030B587B00C461546C7
:103BB0001E4B9B7A002B2CD0030A8DF81430C0B218
:103BC0008DF815000844194B5B685A89904223DC34
:103BD000164A1268D27E197802230293019305AB2C
:103BE00000930123124801F037FCC0B90F4B59680C
:103BF0001B681A7E09780223029301940095012321
:103C00000B4801F0DBFC68B907B030BD4FF0FF3066
:103C100070474FF0FF30F7E74FF0FF30F4E74FF019
:103C2000FF30F1E74FF0FF30EEE700BF280800203B
:103C3000281200202DE9F04F8BB09A462D4B93F8B7
:103C40002530002B46D1074688469146002944D0AE
:103C5000002401E02C44A4B2BC421DD23E1B102E15
:103C6000A8BF1026B5B208EB040B5A4629462046D9
:103C7000FFF750FF002833D106AA29462046FFF758
:103C800091FF80BB2A4606A9584602F0D1FA0028C7
:103C9000E0D06FF001001AE04FEA19238DF81430DC
:103CA0008DF81590134B59681B685A7F09780223C9
:103CB0000293019305AB009301230F4801F0CCFB65
:103CC000A0B90C4B012283F82520A3F826A00BB045
:103CD000BDE8F08F4FF0FF30F9E74FF0FF30F6E727
:103CE0004FF0FF30F3E74FF0FF30F0E74FF0FF30D9
:103CF000EDE700BF2808002028120020284B93F889
:103D00002430834247D070B586B048B3244B93F833
:103D10002530002B41D00020FEF748FD0020FFF7A2
:103D2000ADFB1F4EF08CFFF73BFD00248DF81740D4
:103D30007368197802230293012501950DF1170389
:103D400000932B462322174801F086FB86F8245067
:103D50002846FEF72BFDFEF7FFFF204606B070BD9C
:103D60000020FEF723FD0E4D2B7C8DF817306B687D
:103D7000197802230293012301930DF11702009297
:103D80002322084801F068FB002485F82440FEF750
:103D9000E3FF2046E2E7002070474FF0FF30DDE709
:103DA00028080020281200202DE9F04188B005469F
:103DB0000E463D4B93F82470FFB901A8FFF706F9B2
:103DC0000DF10700FFF772F96846FFF7E1F90DF111
:103DD0000200FFF74FFA344B93F80A800DF106000A
:103DE000FFF7A2FA0024012C0CDC00223146284601
:103DF000FEF734FD30B10134F5E70020FFF77EFF18
:103E00000127DAE7022C1FD00024012C07DC012255
:103E100002A905A8FEF722FD08B10134F5E7022C3E
:103E200014D002A93046FEF7DBFBC6B205A928462E
:103E3000FEF730FC10F0FF0F04D000243EB944F030
:103E4000020404E00124F9E7002400E00024164BFA
:103E5000FF221A725A72DA724FF6FF71D9819A7282
:103E60001A7401221A73BDF80400FFF7CDF89DF80B
:103E70000700FFF73DF9BDF80000FFF7ABF9BDF80B
:103E80000200FFF78DFC4046FFF7E2FC9DF80600BC
:103E9000FFF752FA1FB9204608B0BDE8F0810120B3
:103EA000FFF72CFFF7E700BF2808002038B50446CD
:103EB000C578437813F0010F09D005F03F00C00822
:103EC00005F007010131074B1B6803B19847637880
:103ED00013F0080F04D0034B5B680BB1A809984797
:103EE000002038BDEC12002008B5C8234FF48062D2
:103EF000024940F6F630FFF79DFE08BDB8C0000845
:103F000010B586B004464A4B1B68ADF80C301B0C4C
:103F10008DF80E30474B1B68ADF808301B0C8DF840
:103F20000A30454B1B68ADF804301B0C8DF8063089
:103F3000424B1B68ADF800301B0C8DF8023000F0CE
:103F4000030106AB194411F80C3C8DF81430C0F392
:103F5000C10206AB1A4412F80C3C8DF81530C0F3C0
:103F6000811306A8034413F80C0C8DF8160011F801
:103F7000101C8DF8101012F8102C8DF8112013F869
:103F8000103C8DF8123005AA032140F22640FFF7BD
:103F9000C1FD002840D104AA032140F22A40FFF7C6
:103FA000B9FD00283BD1019BADF814301B0C8DF8F6
:103FB0001630009BADF810301B0C8DF8123014F049
:103FC000040F05D037238DF8143027238DF81030D7
:103FD00014F0200F05D057238DF8153047238DF8A6
:103FE000113014F4807F05D077238DF816306723C5
:103FF0008DF8123005AA03214FF48860FFF78AFD7F
:1040000080B904AA032140F23140FFF783FD60B973
:104010000B4B1C8106B010BD4FF0FF30FAE74FF09C
:10402000FF30F7E74FF0FF30F4E74FF0FF30F1E7F4
:1040300080C0000884C0000888C000088CC0000848
:10404000EC120020F0B585B03F4B1B8903F0030252
:1040500050F82220019213F0040F01D05242019235
:10406000C3F3C10250F82220029213F0200F01D0B6
:1040700052420292C3F3811250F82220039213F4A9
:10408000807F01D052420392019AD117DFF8BCC061
:10409000A2FB0C230CFB0133910F41EA8301029A2E
:1040A000D517A2FB0C230CFB0533940F44EA8304C1
:1040B000039AD717A2FB0C230CFB0733950F45EA95
:1040C00083050B0E8DF80030C1F307438DF80130E6
:1040D000C1F307238DF802308DF803106A460421DE
:1040E0004FF47470FFF716FD40BB230E8DF80030BF
:1040F000C4F307438DF80130C4F307238DF8023071
:104100008DF803406A4604214FF47570FFF702FDF5
:10411000B8B92B0E8DF80030C5F307438DF8013088
:10412000C5F307238DF802308DF803506A46042149
:104130004FF47670FFF7EEFC05B0F0BD4FF0FF30A6
:10414000FAE74FF0FF30F7E7EC12002009E3CA026C
:10415000F0B589B004460DF10600FFF7BFF8BDF8D1
:104160000620D303344A128902F0030154F82110C7
:10417000059112F0040F01D049420591C2F3C1012B
:1041800054F82110069112F0200F01D049420691F7
:10419000C2F3811154F82110079112F4807F01D0ED
:1041A000494207910598C517A0FB030103FB0511C0
:1041B000840F44EA81040698C717A0FB030103FBA0
:1041C0000711820F42EA81020798C717A0FB03017B
:1041D00003FB0711830F43EA8103210E8DF80810BA
:1041E000C4F307418DF80910C4F307218DF80A10B4
:1041F0008DF80B40110E8DF80C10C2F307418DF8AD
:104200000D10C2F307218DF80E108DF80F201A0E35
:104210008DF81020C3F307428DF81120C3F3072255
:104220008DF812208DF8133002AA0C214FF425705E
:10423000FFF770FC09B0F0BDEC12002010B586B09D
:104240000446164B93E8070006AB03E90700C82CA9
:104250001AD8C82393FBF4F3013B1A0E8DF80420FF
:104260008DF8053001AA022140F21620FFF752FC1A
:1042700068B903AA0C2140F6C120FFF74BFC48B9EE
:10428000074B9C8106B010BD4FF0FF30FAE74FF0AE
:10429000FF30F7E74FF0FF30F4E700BF90C00008B1
:1042A000EC12002070B582B0044610F0070F00F049
:1042B000AC800846B1F5C86F00F2AA80FCF70AFA94
:1042C0005B49FCF713FB05460DF10300FEF7EEFE1C
:1042D0009DF80330023B0E2B00F29D80DFE803F0D7
:1042E000089B2C9B9B9B3C9B9B9B9B9B9B9B4C0069
:1042F0004FF08D412846FCF745FAFCF72FFC86B2BB
:104300004C492846FCF73EFAFCF728FC80B2330AF9
:104310008DF804308DF80560030A8DF806308DF8AD
:10432000070014F0010F37D114F0020F48D114F038
:10433000040F58D1002070E04FF08C412846FCF764
:1043400021FAFCF70BFC86B23B492846FCF71AFA27
:10435000FCF704FC80B2DAE74FF08B412846FCF70B
:1043600011FAFCF7FBFB86B234492846FCF70AFA3F
:10437000FCF7F4FB80B2CAE74FF08A412846FCF70D
:1043800001FAFCF7EBFB86B22D492846FCF7FAF957
:10439000FCF7E4FB80B2BAE701AA02214FF4EA700D
:1043A000FFF7B8FB00283AD10DF1060202214FF4C5
:1043B0009270FFF7AFFB0028B6D04FF0FF302CE033
:1043C00001AA02214FF4EC70FFF7A4FB50BB0DF1E2
:1043D000060202214FF49470FFF79CFB0028A6D040
:1043E0004FF0FF3019E001AA02214FF4EE70FFF701
:1043F00091FBD0B90DF1060202214FF49670FFF740
:1044000089FB50B14FF0FF3007E04FF0FF3004E080
:104410004FF0FF3001E04FF0FF3002B070BD4FF0C1
:10442000FF30FAE74FF0FF30F7E74FF0FF30F4E7E7
:1044300000004843000040460000C04500004045E1
:104440000000C04400B583B000238DF8073010F0A1
:10445000010F02D030238DF8073010F0020F05D085
:104460009DF8073043F00C038DF8073010F0040F6F
:1044700005D09DF8073043F003038DF807300DF1A8
:10448000070201214FF4A470FFF744FB03B05DF86D
:1044900004FB00B583B020B10346042802D90423ED
:1044A00000E00123013B8DF807300DF107020121E7
:1044B00040F24F10FFF72EFB03B05DF804FB000045
:1044C00000B583B0094BA3FB0030830A8DF804309C
:1044D000C0F387008DF8050001AA02214FF4EF70A8
:1044E000FFF718FB03B05DF804FB00BFCDCCCCCCCC
:1044F00000B583B0094BA3FB0030830A8DF804306C
:10450000C0F387008DF8050001AA02214FF4ED7079
:10451000FFF700FB03B05DF804FB00BFCDCCCCCCB3
:1045200000B583B00E4B83FB0023C017C0EBA31074
:1045300001FB00F0030E8DF80430C0F307438DF843
:104540000530C0F307238DF806308DF8070001AA67
:1045500004214FF4AE70FFF7DDFA03B05DF804FB01
:10456000D34D621000B583B0084BA3FB0030830825
:10457000800A8DF804008DF8053001AA02214FF45D
:10458000AD70FFF7C7FA03B05DF804FBCDCCCCCC1F
:1045900000B583B0084BA3FB00308308800A8DF878
:1045A00004008DF8053001AA02214FF4AC70FFF72A
:1045B000B1FA03B05DF804FBCDCCCCCC00B585B02E
:1045C00068B10D4A01AB07CA03C31A7001AA0921D9
:1045D0004FF49760FFF79EFA05B05DF804FB074AB9
:1045E00001AB07CA03C31A7001AA09214FF49760EF
:1045F000FFF790FAF0E700BFA0C00008ACC00008C9
:1046000000B583B0B0B1C0238DF80430C2238DF85B
:104610000530C4238DF80630C6238DF8073001AA73
:10462000042140F69820FFF775FAFEF795FB03B0DA
:104630005DF804FB4FF08B330193F0E700B583B0D6
:10464000B0B120238DF8043028238DF805303023B5
:104650008DF8063038238DF8073001AA042140F682
:104660009E20FFF757FAFEF777FB03B05DF804FBD7
:104670004FF0A3330193F0E72DE9F04184B00446F5
:1046800002238DF80430CA238DF80530E3238DF81A
:10469000063009238DF8073001AA04216820FFF7AE
:1046A00039FAA3238DF8043014F0400800F0B080EC
:1046B000C0238DF80530C8238DF80630C2238DF84D
:1046C000073014F4C07500F0AB80C4238DF80830B7
:1046D000CC238DF80930C6238DF80A30A3238DF83A
:1046E0000B308DF80C308DF80D3001AA0A2140F600
:1046F000A720FFF70FFA14F0030700F0998020239A
:104700008DF8043001AA012140F6B620FFF702FA25
:1047100014F0200F00F090800120FFF74FFFADB1A3
:1047200014F4807F00F08C80B2238DF804308B234A
:104730008DF80530B6238DF806309B238DF80730B1
:1047400001AA042140F6A220FFF7E4F914F0010FBA
:1047500000F08380F8238DF8043001AA01214FF482
:104760000B60FFF7D7F9FA210720FFF79BFD072021
:10477000FFF768FE0120FFF78CFE6420FFF7A0FE24
:104780004FF4FA70FFF7B4FEC8213F48FFF7C8FEA8
:104790002820FFF7E7FE0A20FFF7FAFE14F0020FC9
:1047A00065D0D9238DF8043001AA012140F23D7073
:1047B000FFF7B0F914F0040F5DD00120FFF720FFE0
:1047C00014F0100F5BD00120FFF738FF2F4E44F09C
:1047D00008037381FEF7C0FA0023B373B8F1000F2A
:1047E00001D00622B2731DB1284A937B063393731E
:1047F00014F0140F03D0254A937B103393731FB129
:10480000224A937B04339373002004B0BDE8F08107
:10481000A3238DF805308DF806308DF8073050E76A
:10482000A3238DF808308DF809308DF80A3055E74C
:10483000D8238DF8043065E70020FFF7BFFE6EE750
:10484000B0238DF8043080238DF80530B4238DF823
:10485000063090238DF8073072E7D8238DF80430A6
:1048600001AA01214FF40B60FFF754F996E7D82312
:104870008DF8043098E70020FFF7C2FEA0E7002083
:10488000FFF7DCFEA2E700BF09E3CA02EC1200203A
:104890002DE9F04788B006460F4692469846109D8F
:1048A00000232B80119A69466F4B987BFEF776FDAB
:1048B000002840F0D58081466B4B5B8913F0140FC4
:1048C0005FD09DF800209DF80100000440EA0260DE
:1048D0009DF8022040EA02209DF803201043CAF808
:1048E00000009DF804109DF80520120442EA0162C0
:1048F0009DF8061042EA01229DF807100A43CAF803
:1049000004209DF808409DF80910090441EA04615B
:104910009DF80A4041EA04219DF80B402143CAF862
:1049200008109DF80CC09DF80D40240444EA0C6466
:104930009DF80EC044EA0C249DF80FC044EA0C0414
:10494000CAF80C4000144FEA224C091422140CFB44
:104950000CFC00FB00C001FB010102FB021202F192
:104960007142B2F1007F05D82A8842F480722A8011
:10497000102207E0FEF7F0F900232B804FF0FF39FB
:1049800065E0002213F0400F2BD008A9114411F864
:10499000204C501C08A9084410F8201C41EA0421AE
:1049A0003980911C08A8014411F8204CD01C08A99A
:1049B000084410F8201C41EA04217980111D08A840
:1049C000014411F8204C501D08A9084410F8201C7F
:1049D00041EA0421B9800632D2B2298841F00801A7
:1049E000298013F4C07F2BD008A9114411F8204C62
:1049F000501C08A9084410F8201C41EA0421318009
:104A0000911C08A8014411F8204CD01C08A90844A6
:104A100010F8201C41EA04217180111D08A80144EE
:104A200011F8204C501D08A9084410F8201C41EA38
:104A30000421B1800632D2B2298841F07001298068
:104A400013F0030F07D100F055F8C8F800004846EE
:104A500008B0BDE8F0870DEB0200FFF727FAF2E798
:104A60004FF0FF39F3E700BFEC12002010B5044609
:104A70000E4B18784FF47A73B3FBF0F30C4A1068BE
:104A8000B0FBF3F000F096F868B90F2C01D90120C3
:104A90000AE0002221464FF0FF3000F057F8054BA6
:104AA0001C60002000E0012010BD00BF5408002061
:104AB000180800205808002008B5074A136843F07A
:104AC00010031360032000F02FF80F20FFF7CEFF34
:104AD000FDF7F2F9002008BD00200240034A1168EA
:104AE000034B1B780B441360704700BFFC1200207F
:104AF00054080020014B1868704700BFFC120020CA
:104B000038B50446FFF7F6FF0546B4F1FF3F02D083
:104B1000044B1B781C44FFF7EDFF401BA042FAD367
:104B200038BD00BF54080020074AD36823F4E0636F
:104B30001B041B0C000200F4E060034343F0BF635E
:104B400043F40033D360704700ED00E030B4174BFE
:104B5000DB68C3F30223C3F10704042C28BF042439
:104B60001D1D062D18D9033B4FF0FF3505FA04F43F
:104B700021EA0401994005FA03F322EA03031943E9
:104B800000280BDB0901C9B200F1604000F561406B
:104B900080F8001330BC70470023E5E700F00F00F9
:104BA0000901C9B2024B1954F4E700BF00ED00E05F
:104BB00014ED00E00138B0F1807F0AD2064B586056
:104BC000064AF02182F823100020986007221A601C
:104BD00070470120704700BF10E000E000ED00E0EA
:104BE000F0B482B000252C46A3E07F4FBB4210D02A
:104BF00007D97E4FBB420CD007F58037BB4208D0A7
:104C000013E0A7F58017BB4203D007F57027BB421E
:104C100007D18B68002B58D0012B51D04261082559
:104C200003E0A7F58017BB42F3D0FF2E4FD8844690
:104C3000FF2E4FD8A200DCF800300F27974023EA60
:104C4000070305FA02F21343CCF800304B6813F067
:104C5000805F6DD0664B9A6942F001029A619B6950
:104C600003F001030193019BA208971C614B53F8C9
:104C7000273004F00307BF004FF00F0C0CFA07FCBD
:104C800023EA0C0C5C4B98422AD003F580639842CF
:104C900000F08A8003F58063984200F0878003F576
:104CA000806398421AD004231BE0CD68BDE7CD682D
:104CB0000435BAE7CD680835B7E7CD680C35B4E7F9
:104CC00002610825B1E70025AFE70425ADE700F153
:104CD000040CADE7A4F108029200ACE7032300E066
:104CE0000023BB4043EA0C030232424F47F8223014
:104CF0004B6813F4803F5BD0404A13683343136022
:104D00004B6813F4003F59D03C4A53683343536017
:104D10004B6813F4801F57D0384A9368334393602D
:104D20004B6813F4001F55D0344AD3681E43D66035
:104D300001340B6833FA04F252D00122A24003EA94
:104D4000020632EA0303F3D14B68122B3FF64DAF54
:104D5000122B3FF66AAF01A757F823F0134C000857
:104D6000AB4C0008B54C0008C74C00082B4C0008A1
:104D70002B4C00082B4C00082B4C00082B4C000837
:104D80002B4C00082B4C00082B4C00082B4C000827
:104D90002B4C00082B4C00082B4C00082B4C000817
:104DA000AF4C0008BB4C000801239AE7022398E7A8
:104DB000124A136823EA06031360A1E70F4A5368F7
:104DC00023EA06035360A3E70C4A936823EA060329
:104DD0009360A5E7094AD36823EA0606D660A7E7E9
:104DE00002B0F0BC704700BF00002210000031107C
:104DF0000010024000000140000801400004014092
:104E00000AB10161704709040161704703685A697A
:104E100012F4806F01D1002070476FF480625A61F4
:104E200000230363202280F83D2080F83E30026C8E
:104E300042F00402026480F83C30012070472DE902
:104E4000F04107460D4690461E4622E0FFF752FE0F
:104E5000069BC01AB04200D8DEB900233B63202273
:104E600087F83D2087F83E303A6C42F020023A64E1
:104E700087F83C3001201AE03B689C6925EA04046D
:104E8000A4B2B4FA84F46409A0450FD1B6F1FF3F8F
:104E9000DCD1C5F30743012BEED13B685C6925EA01
:104EA0000404A4B2B4FA84F46409EDE70020BDE878
:104EB000F0812DE9F04105460E46174698463DE043
:104EC0001A6842F400721A602B686FF480625A61AB
:104ED00000232B63202285F83D2085F83E302A6C84
:104EE00042F004022A6485F83C30012034E0FFF7E8
:104EF00001FEA0EB0800B84200D8FFB900232B63E5
:104F0000202285F83D2085F83E302A6C42F02002B0
:104F10002A6485F83C3001201EE02B689C6926EA53
:104F20000404A4B2003C18BF0124A4B12B685A6940
:104F300012F4806FC4D1B7F1FF3FD8D1C6F3074355
:104F4000012BEAD12B685C6926EA0404A4B2003C78
:104F500018BF0124E9E70020BDE8F08170B50446E0
:104F60000D46164623685B6913F0800F1CD120465E
:104F7000FFF74CFFD0B9B5F1FF3FF3D0FFF7BAFD13
:104F8000801BA84201D8002DECD1002323632022EE
:104F900084F83D2084F83E30226C42F020022264E6
:104FA00084F83C30012000E0002070BD0120FCE7C7
:104FB0002DE9F04385B004460D4691461F46DDF8C5
:104FC00030800D9E0368196841F480711960009665
:104FD000434600224FF00111FFF731FF60B923680B
:104FE00005F0FE051D613346424626492046FFF77F
:104FF00060FF68B1012008E023681B6813F4807F1C
:1050000002D04FF400732364032005B0BDE8F083A1
:105010000023039323685A6903929B690393039BBC
:10502000324641462046FFF799FF30B9012F0FD194
:1050300023685FFA89F61E61E7E7236C042B01D031
:105040000120E2E72268136843F400731360F7E776
:1050500023684FEA19221A61324641462046FFF77B
:105060007DFF20B923685FFA89F61E61CDE7236CC6
:10507000042B01D00120C8E72268136843F40073B1
:105080001360F7E7020001002DE9F04784B0044601
:105090000D46164699460C9FDDF834800268136869
:1050A00043F4806313600368196841F480711960E8
:1050B000CDF800803B4600224FF00111FFF7BFFE04
:1050C00070B95FFA85FA236805F0FE051D61434655
:1050D0003A4641492046FFF7ECFE68B1012008E05E
:1050E00023681B6813F4807F02D04FF4007323649D
:1050F000032004B0BDE8F0870023039323685A69B6
:1051000003929B690393039B424639462046FFF76F
:1051100025FF80B9B9F1010F18D12368F6B21E61DD
:10512000424639462046FFF719FF68B3236C042B2B
:1051300024D00120DDE7236C042B01D00120D8E727
:105140002268136843F400731360F7E72368320A98
:105150001A61424639462046FFF700FF18B9236816
:10516000F6B21E61DCE7236C042B01D00120C0E7FE
:105170002268136843F400731360F7E7226813682A
:1051800043F400731360D4E72268136843F4807318
:105190001360CDF800803B4600224FF001112046FD
:1051A000FFF74DFE68B922684AF0010313614346D8
:1051B0003A4609492046FFF77CFE002899D0012095
:1051C00097E723681B6813F4807F02D04FF40073C5
:1051D000236403208DE700BF0200010070B5044680
:1051E0000D46164623685B6913F0040F1CD1204658
:1051F000FFF70CFED0B9B5F1FF3FF3D0FFF77AFC13
:10520000801BA84201D8002DECD10023236320226B
:1052100084F83D2084F83E30226C42F02002226463
:1052200084F83C30012000E0002070BD0120FCE744
:1052300070B505460C4616462B68596911F0400FAB
:1052400029D1596911F0100F15D1FFF753FC801BBC
:10525000A04201D8002CEFD100232B63202285F837
:105260003D2085F83E302A6C42F020022A6485F801
:105270003C30012070BD6FF010025A6100232B6397
:10528000202285F83D2085F83E302A6C2A6485F876
:105290003C300120EEE70020ECE70000002800F0A1
:1052A000CC80F8B5044690F83D30002B77D024230D
:1052B00084F83D302268136823F0010313602268EC
:1052C000136843F4004313602268136823F4004317
:1052D000136000F025FE62685A4B9A4264D85A4B1C
:1052E00098428CBF00230123002B40F0A880574D2B
:1052F000A5FB0035AF0C2668716821F03F0141EA3B
:105300009541716021680B6A23F03F0365684D4A3F
:1053100095424FD87A1C13430B622568E96921F442
:105320004F4121F0FF016368464A93424CD801384F
:105330005B00B0FBF3F0013040F6FC73184278D00C
:10534000C0F30B030B43EB6121680B6823F0C00330
:10535000E269206A024313430B6021688B6823F4DF
:10536000034323F0FF032269E068024313438B6089
:105370002168CB6823F0FF036269A06902431343ED
:10538000CB602268136843F001031360002020649F
:10539000202384F83D30206384F83E00F8BD80F877
:1053A0003C30FCF79FF982E7294B98428CBF0023E1
:1053B000012399E74FF4967202FB07F2254DA5FBF6
:1053C000025292090132A6E7A268BAB9461E03EB5F
:1053D0004307B6FBF7F60136C6F30B06B6FA86F6B8
:1053E000760946BBC2B9421E03EB4303B2FBF3F29C
:1053F0000132C2F30B0242F40043A3E7461E03EB63
:10540000830707EB8707B6FBF7F60136C6F30B06F3
:10541000B6FA86F67609E4E7421E03EB830303EB54
:105420008303B2FBF3F20132C2F30B0242F44043B6
:1054300088E7042386E7012384E7012070470120E1
:10544000ACE700BFA08601007F841E0083DE1B4303
:10545000FF083D00D34D62102DE9F04383B00446B0
:105460000F46904699460C9EFFF744FB054694F87C
:105470003D00C0B2202803D0022003B0BDE8F08375
:105480000095192301224B492046FFF7D8FC00283C
:1054900040F0898094F83C30012B00F08680012395
:1054A00084F83C3023681A6812F0010F03D11A689F
:1054B00042F001021A602268136823F4006313604B
:1054C000212384F83D30402384F83E3000232364B8
:1054D0000A9B6362BDF82C306385638D2385364B50
:1054E000E362019500964B46424639462046FFF757
:1054F0005FFD00285BD1238D002B35D02A46314635
:105500002046FFF72BFD20BB626A236812781A61E0
:10551000616A4B1C6362228D013A92B22285638DCF
:105520009BB2013B9BB263852368586910F0040F5E
:10553000E1D0002ADFD04A781A61636A01336362DE
:10554000238D013B2385638D9BB2013B9BB2638519
:10555000D1E7236C042B01D001208EE72268136869
:1055600043F400731360F7E72A4631462046FFF7FD
:1055700035FE50B1236C042B01D001207DE7226859
:10558000136843F400731360F7E72268136843F469
:1055900000731360202384F83D30002384F83E30EC
:1055A00084F83C3069E7022067E7022065E70120C4
:1055B00063E700BF020010000000FFFF2DE9F04389
:1055C00089B004460F4690469946129E00230793E1
:1055D000FFF790FA054694F83D00C0B2202804D0A9
:1055E0000227384609B0BDE8F0830095192301224F
:1055F0009E492046FFF723FC002840F0748194F870
:105600003C30012B00F07181012384F83C30236889
:105610001A6812F0010F03D11A6842F001021A60F1
:105620002268136823F400631360222384F83D305A
:10563000402384F83E3000232364109B6362BDF84E
:1056400044306385638D2385894BE3620195009621
:105650004B46424639462046FFF716FD07460028CE
:1056600040F04581238D5BB9039323685A69039207
:105670009A690392039A1A6842F400721A6076E0FB
:10568000012B0FD0022B21D02268136843F48063D2
:1056900013600023069323685A6906929B69069358
:1056A000069B64E02268136823F48063136072B67B
:1056B0000023049323685A6904929A690492049A15
:1056C0001A6842F400721A6062B650E022681368E9
:1056D00043F40063136072B60023059323685A698C
:1056E00005929A690592059A1A6822F480621A60F6
:1056F00062B63CE02A4631462046FFF799FD002875
:1057000040F0F78023681A69636A1A70636A01338C
:105710006362238D013B2385638D9BB2013B9BB26A
:10572000638524E072B62268136843F40073136043
:1057300023681A69636A1A70636A01336362238D8E
:10574000013B2385638D9BB2013B9BB2638562B6AF
:1057500023681A69636A1A70636A01336362238D6E
:10576000013B2385638D9BB2013B9BB26385238DF7
:10577000002B00F0AF80032B00F28280012BB9D008
:10578000022B0AD10095334600223A492046FFF702
:1057900056FB0028C6D0012723E700953346002298
:1057A00034492046FFF74BFB002840F0A4802268D4
:1057B000136823F48063136072B623681A69636AFE
:1057C0001A70636A01336362238D013B2385638D05
:1057D0009BB2013B9BB26385274B1B68DB08274AC2
:1057E000A2FB03231B0A03EB8303C3EBC30307934F
:1057F000079B013B0793079B002B28D023685A691E
:1058000012F0040FF4D01A6842F400721A60236890
:105810001A69636A1A70636A01336362238D013BFC
:105820002385638D9BB2013B9BB2638562B623687F
:105830001A69636A1A70636A01336362238D013BDC
:105840002385638D9BB2013B9BB263858FE7236306
:10585000202284F83D2084F83E30226C42F0200261
:10586000226462B684F83C300127BAE602001000D8
:105870000000FFFF040001001808002089B5F8149B
:105880002A4631462046FFF7D3FC002835D123684D
:105890001A69636A1A70626A531C6362238D013B42
:1058A0002385638D9BB2013B9BB263852368596955
:1058B00011F0040F3FF45BAF1B695370636A01334F
:1058C0006362238D013B2385638D9BB2013B9BB2B9
:1058D00063854CE7202384F83D30002384F83E3074
:1058E00084F83C307DE602277BE6022779E6012733
:1058F00077E6012775E6012773E6012771E600BF09
:1059000082B0084B1B68084AA2FB03235B0A00FB1A
:1059100003F3019300BF019B5A1E0192002BF9D1A2
:1059200002B0704718080020D34D6210002800F024
:10593000F18170B582B00446036813F0010F2CD0DA
:10594000AA4B5B6803F00C03042B1DD0A74B5B68CC
:1059500003F00C03082B12D06368B3F5803F41D0ED
:10596000002B55D103F1804303F504331A6822F468
:1059700080321A601A6822F480221A6037E09B4B4A
:105980005B6813F4803FE7D0984B1B6813F4003F2B
:1059900003D06368002B00F0BF81236813F0020F6F
:1059A00075D0924B5B6813F00C0F5FD08F4B5B6828
:1059B00003F00C03082B54D02369002B00F08980DE
:1059C0008B4B01221A60FFF795F80546874B1B6841
:1059D00013F0020F74D1FFF78DF8401B0228F5D9A0
:1059E00003209EE1814A136843F4803313606368A7
:1059F00043B3FFF77FF805467C4B1B6813F4003F69
:105A0000CBD1FFF777F8401B6428F5D9032088E154
:105A1000B3F5A02F09D0754B1A6822F480321A60B2
:105A20001A6822F480221A60E1E703F18043A3F5AB
:105A30003C331A6842F480221A601A6842F48032B9
:105A40001A60D4E7FFF756F80546684B1B6813F455
:105A5000003FA2D0FFF74EF8401B6428F5D9032081
:105A60005FE1624B5B6813F4803FA5D15F4B1B681D
:105A700013F0020F03D02369012B40F04F815B4AE2
:105A8000136823F0F803616943EAC10313602368D4
:105A900013F0080F32D0A369002B45D0554B0122DB
:105AA0001A60FFF727F80546504B5B6A13F0020FA8
:105AB00021D1FFF71FF8401B0228F5D9032030E160
:105AC0004A4A136823F0F803616943EAC10313608B
:105AD000DDE7474B00221A60FFF70CF80546434B01
